{
  "_format": "hh-sol-artifact-1",
  "contractName": "LendingRequest",
  "sourceName": "contracts/LendingRequestContract.sol",
  "abi": [
    {
      "inputs": [
        {
          "internalType": "address payable",
          "name": "_asker",
          "type": "address"
        },
        {
          "internalType": "uint256",
          "name": "_amountAsked",
          "type": "uint256"
        },
        {
          "internalType": "uint256",
          "name": "_paybackAmount",
          "type": "uint256"
        },
        {
          "internalType": "string",
          "name": "_purpose",
          "type": "string"
        },
        {
          "internalType": "address payable",
          "name": "_owner",
          "type": "address"
        },
        {
          "internalType": "address payable",
          "name": "_token",
          "type": "address"
        },
        {
          "internalType": "uint256",
          "name": "_collateral",
          "type": "uint256"
        },
        {
          "internalType": "uint256",
          "name": "_collateralCollectionTimeStamp",
          "type": "uint256"
        }
      ],
      "stateMutability": "payable",
      "type": "constructor"
    },
    {
      "inputs": [],
      "name": "amountAsked",
      "outputs": [
        {
          "internalType": "uint256",
          "name": "",
          "type": "uint256"
        }
      ],
      "stateMutability": "view",
      "type": "function"
    },
    {
      "inputs": [],
      "name": "asker",
      "outputs": [
        {
          "internalType": "address payable",
          "name": "",
          "type": "address"
        }
      ],
      "stateMutability": "view",
      "type": "function"
    },
    {
      "inputs": [
        {
          "internalType": "address",
          "name": "_asker",
          "type": "address"
        }
      ],
      "name": "cancelRequest",
      "outputs": [
        {
          "internalType": "bool",
          "name": "success",
          "type": "bool"
        }
      ],
      "stateMutability": "nonpayable",
      "type": "function"
    },
    {
      "inputs": [],
      "name": "collateral",
      "outputs": [
        {
          "internalType": "uint256",
          "name": "",
          "type": "uint256"
        }
      ],
      "stateMutability": "view",
      "type": "function"
    },
    {
      "inputs": [],
      "name": "collateralCollected",
      "outputs": [
        {
          "internalType": "bool",
          "name": "",
          "type": "bool"
        }
      ],
      "stateMutability": "view",
      "type": "function"
    },
    {
      "inputs": [],
      "name": "collateralCollectionTimeStamp",
      "outputs": [
        {
          "internalType": "uint256",
          "name": "",
          "type": "uint256"
        }
      ],
      "stateMutability": "view",
      "type": "function"
    },
    {
      "inputs": [
        {
          "internalType": "address payable",
          "name": "_lender",
          "type": "address"
        }
      ],
      "name": "collectCollateral",
      "outputs": [
        {
          "internalType": "bool",
          "name": "success",
          "type": "bool"
        }
      ],
      "stateMutability": "nonpayable",
      "type": "function"
    },
    {
      "inputs": [],
      "name": "debtSettled",
      "outputs": [
        {
          "internalType": "bool",
          "name": "",
          "type": "bool"
        }
      ],
      "stateMutability": "view",
      "type": "function"
    },
    {
      "inputs": [],
      "name": "getRequestParameters",
      "outputs": [
        {
          "internalType": "address payable",
          "name": "",
          "type": "address"
        },
        {
          "internalType": "address payable",
          "name": "",
          "type": "address"
        },
        {
          "internalType": "uint256",
          "name": "",
          "type": "uint256"
        },
        {
          "internalType": "uint256",
          "name": "",
          "type": "uint256"
        },
        {
          "internalType": "string",
          "name": "",
          "type": "string"
        }
      ],
      "stateMutability": "view",
      "type": "function"
    },
    {
      "inputs": [],
      "name": "getRequestState",
      "outputs": [
        {
          "internalType": "bool",
          "name": "",
          "type": "bool"
        },
        {
          "internalType": "bool",
          "name": "",
          "type": "bool"
        },
        {
          "internalType": "uint256",
          "name": "",
          "type": "uint256"
        },
        {
          "internalType": "bool",
          "name": "",
          "type": "bool"
        },
        {
          "internalType": "uint256",
          "name": "",
          "type": "uint256"
        },
        {
          "internalType": "uint256",
          "name": "",
          "type": "uint256"
        }
      ],
      "stateMutability": "view",
      "type": "function"
    },
    {
      "inputs": [
        {
          "internalType": "address payable",
          "name": "_lender",
          "type": "address"
        }
      ],
      "name": "lend",
      "outputs": [
        {
          "internalType": "bool",
          "name": "success",
          "type": "bool"
        }
      ],
      "stateMutability": "nonpayable",
      "type": "function"
    },
    {
      "inputs": [],
      "name": "lender",
      "outputs": [
        {
          "internalType": "address payable",
          "name": "",
          "type": "address"
        }
      ],
      "stateMutability": "view",
      "type": "function"
    },
    {
      "inputs": [],
      "name": "moneyLent",
      "outputs": [
        {
          "internalType": "bool",
          "name": "",
          "type": "bool"
        }
      ],
      "stateMutability": "view",
      "type": "function"
    },
    {
      "inputs": [
        {
          "internalType": "address payable",
          "name": "_asker",
          "type": "address"
        }
      ],
      "name": "payback",
      "outputs": [
        {
          "internalType": "bool",
          "name": "success",
          "type": "bool"
        }
      ],
      "stateMutability": "nonpayable",
      "type": "function"
    },
    {
      "inputs": [],
      "name": "paybackAmount",
      "outputs": [
        {
          "internalType": "uint256",
          "name": "",
          "type": "uint256"
        }
      ],
      "stateMutability": "view",
      "type": "function"
    },
    {
      "inputs": [],
      "name": "purpose",
      "outputs": [
        {
          "internalType": "string",
          "name": "",
          "type": "string"
        }
      ],
      "stateMutability": "view",
      "type": "function"
    }
  ],
  "bytecode": "0x6080604052604051620024b9380380620024b983398181016040528101906200002991906200041b565b87600260006101000a81548173ffffffffffffffffffffffffffffffffffffffff021916908373ffffffffffffffffffffffffffffffffffffffff16021790555086600581905550856006819055508460079080519060200190620000909291906200012e565b50836000806101000a81548173ffffffffffffffffffffffffffffffffffffffff021916908373ffffffffffffffffffffffffffffffffffffffff16021790555082600160006101000a81548173ffffffffffffffffffffffffffffffffffffffff021916908373ffffffffffffffffffffffffffffffffffffffff1602179055508160048190555080600881905550505050505050505062000568565b8280546200013c9062000532565b90600052602060002090601f016020900481019282620001605760008555620001ac565b82601f106200017b57805160ff1916838001178555620001ac565b82800160010185558215620001ac579182015b82811115620001ab5782518255916020019190600101906200018e565b5b509050620001bb9190620001bf565b5090565b5b80821115620001da576000816000905550600101620001c0565b5090565b6000604051905090565b600080fd5b600080fd5b600073ffffffffffffffffffffffffffffffffffffffff82169050919050565b60006200021f82620001f2565b9050919050565b620002318162000212565b81146200023d57600080fd5b50565b600081519050620002518162000226565b92915050565b6000819050919050565b6200026c8162000257565b81146200027857600080fd5b50565b6000815190506200028c8162000261565b92915050565b600080fd5b600080fd5b6000601f19601f8301169050919050565b7f4e487b7100000000000000000000000000000000000000000000000000000000600052604160045260246000fd5b620002e7826200029c565b810181811067ffffffffffffffff82111715620003095762000308620002ad565b5b80604052505050565b60006200031e620001de565b90506200032c8282620002dc565b919050565b600067ffffffffffffffff8211156200034f576200034e620002ad565b5b6200035a826200029c565b9050602081019050919050565b60005b83811015620003875780820151818401526020810190506200036a565b8381111562000397576000848401525b50505050565b6000620003b4620003ae8462000331565b62000312565b905082815260208101848484011115620003d357620003d262000297565b5b620003e084828562000367565b509392505050565b600082601f8301126200040057620003ff62000292565b5b8151620004128482602086016200039d565b91505092915050565b600080600080600080600080610100898b0312156200043f576200043e620001e8565b5b60006200044f8b828c0162000240565b9850506020620004628b828c016200027b565b9750506040620004758b828c016200027b565b965050606089015167ffffffffffffffff811115620004995762000498620001ed565b5b620004a78b828c01620003e8565b9550506080620004ba8b828c0162000240565b94505060a0620004cd8b828c0162000240565b93505060c0620004e08b828c016200027b565b92505060e0620004f38b828c016200027b565b9150509295985092959890939650565b7f4e487b7100000000000000000000000000000000000000000000000000000000600052602260045260246000fd5b600060028204905060018216806200054b57607f821691505b6020821081141562000562576200056162000503565b5b50919050565b611f4180620005786000396000f3fe608060405234801561001057600080fd5b50600436106101005760003560e01c8063a39152f211610097578063bed70b5711610066578063bed70b57146102be578063c7a66eb3146102dc578063d2cb7e56146102fa578063d8dfeb451461031857610100565b8063a39152f21461021d578063af98f75714610240578063b656f2e314610270578063bcead63e146102a057610100565b806362fe9875116100d357806362fe9875146101a157806370740aab146101bf57806381ec72a4146101dd57806381fea3b5146101fb57610100565b80630462755514610105578063261381d21461012357806334044ea9146101535780634595622314610183575b600080fd5b61010d610336565b60405161011a9190611413565b60405180910390f35b61013d60048036038101906101389190611491565b61033c565b60405161014a91906114d9565b60405180910390f35b61016d60048036038101906101689190611491565b6105d2565b60405161017a91906114d9565b60405180910390f35b61018b610a1c565b60405161019891906114d9565b60405180910390f35b6101a9610a2f565b6040516101b69190611413565b60405180910390f35b6101c7610a35565b6040516101d4919061158d565b60405180910390f35b6101e5610ac3565b6040516101f291906114d9565b60405180910390f35b610203610ad6565b6040516102149594939291906115be565b60405180910390f35b610225610c57565b60405161023796959493929190611618565b60405180910390f35b61025a600480360381019061025591906116b7565b610d39565b60405161026791906114d9565b60405180910390f35b61028a60048036038101906102859190611491565b610f7b565b60405161029791906114d9565b60405180910390f35b6102a861138f565b6040516102b591906116e4565b60405180910390f35b6102c66113b5565b6040516102d39190611413565b60405180910390f35b6102e46113bb565b6040516102f191906116e4565b60405180910390f35b6103026113e1565b60405161030f91906114d9565b60405180910390f35b6103206113f4565b60405161032d9190611413565b60405180910390f35b60055481565b60008060009054906101000a900473ffffffffffffffffffffffffffffffffffffffff1673ffffffffffffffffffffffffffffffffffffffff163373ffffffffffffffffffffffffffffffffffffffff16146103cd576040517f08c379a00000000000000000000000000000000000000000000000000000000081526004016103c49061174b565b60405180910390fd5b600360009054906101000a900473ffffffffffffffffffffffffffffffffffffffff1673ffffffffffffffffffffffffffffffffffffffff168273ffffffffffffffffffffffffffffffffffffffff161461045d576040517f08c379a0000000000000000000000000000000000000000000000000000000008152600401610454906117b7565b60405180910390fd5b60011515600960009054906101000a900460ff161515148015610493575060001515600960019054906101000a900460ff161515145b6104d2576040517f08c379a00000000000000000000000000000000000000000000000000000000081526004016104c990611823565b60405180910390fd5b600960029054906101000a900460ff1615610522576040517f08c379a00000000000000000000000000000000000000000000000000000000081526004016105199061188f565b60405180910390fd5b600854421015610567576040517f08c379a000000000000000000000000000000000000000000000000000000000815260040161055e906118fb565b60405180910390fd5b6001600960026101000a81548160ff0219169083151502179055508173ffffffffffffffffffffffffffffffffffffffff166108fc479081150290604051600060405180830381858888f193505050501580156105c8573d6000803e3d6000fd5b5060019050919050565b60008060009054906101000a900473ffffffffffffffffffffffffffffffffffffffff1673ffffffffffffffffffffffffffffffffffffffff163373ffffffffffffffffffffffffffffffffffffffff1614610663576040517f08c379a000000000000000000000000000000000000000000000000000000000815260040161065a9061174b565b60405180910390fd5b600260009054906101000a900473ffffffffffffffffffffffffffffffffffffffff1673ffffffffffffffffffffffffffffffffffffffff168273ffffffffffffffffffffffffffffffffffffffff16146106f3576040517f08c379a00000000000000000000000000000000000000000000000000000000081526004016106ea90611967565b60405180910390fd5b600960009054906101000a900460ff16801561071c5750600960019054906101000a900460ff16155b61075b576040517f08c379a0000000000000000000000000000000000000000000000000000000008152600401610752906119d3565b60405180910390fd5b600960029054906101000a900460ff16156107ab576040517f08c379a00000000000000000000000000000000000000000000000000000000081526004016107a29061188f565b60405180910390fd5b6000600160009054906101000a900473ffffffffffffffffffffffffffffffffffffffff1673ffffffffffffffffffffffffffffffffffffffff1663dd62ed3e84306040518363ffffffff1660e01b815260040161080a929190611a61565b602060405180830381865afa158015610827573d6000803e3d6000fd5b505050506040513d601f19601f8201168201806040525081019061084b9190611ab6565b9050600654811015610892576040517f08c379a000000000000000000000000000000000000000000000000000000000815260040161088990611b2f565b60405180910390fd5b600160009054906101000a900473ffffffffffffffffffffffffffffffffffffffff1673ffffffffffffffffffffffffffffffffffffffff166323b872dd84600360009054906101000a900473ffffffffffffffffffffffffffffffffffffffff166006546040518463ffffffff1660e01b815260040161091593929190611b4f565b6020604051808303816000875af1158015610934573d6000803e3d6000fd5b505050506040513d601f19601f820116820180604052508101906109589190611bb2565b610997576040517f08c379a000000000000000000000000000000000000000000000000000000000815260040161098e90611c2b565b60405180910390fd5b47600460008282546109a99190611c7a565b925050819055508273ffffffffffffffffffffffffffffffffffffffff166108fc479081150290604051600060405180830381858888f193505050501580156109f6573d6000803e3d6000fd5b506001600960016101000a81548160ff0219169083151502179055506001915050919050565b600960009054906101000a900460ff1681565b60085481565b60078054610a4290611cdd565b80601f0160208091040260200160405190810160405280929190818152602001828054610a6e90611cdd565b8015610abb5780601f10610a9057610100808354040283529160200191610abb565b820191906000526020600020905b815481529060010190602001808311610a9e57829003601f168201915b505050505081565b600960019054906101000a900460ff1681565b600080600080606060008054906101000a900473ffffffffffffffffffffffffffffffffffffffff1673ffffffffffffffffffffffffffffffffffffffff163373ffffffffffffffffffffffffffffffffffffffff1614610b6c576040517f08c379a0000000000000000000000000000000000000000000000000000000008152600401610b639061174b565b60405180910390fd5b600260009054906101000a900473ffffffffffffffffffffffffffffffffffffffff16600360009054906101000a900473ffffffffffffffffffffffffffffffffffffffff166005546006546007808054610bc690611cdd565b80601f0160208091040260200160405190810160405280929190818152602001828054610bf290611cdd565b8015610c3f5780601f10610c1457610100808354040283529160200191610c3f565b820191906000526020600020905b815481529060010190602001808311610c2257829003601f168201915b50505050509050945094509450945094509091929394565b60008060008060008060008054906101000a900473ffffffffffffffffffffffffffffffffffffffff1673ffffffffffffffffffffffffffffffffffffffff163373ffffffffffffffffffffffffffffffffffffffff1614610cee576040517f08c379a0000000000000000000000000000000000000000000000000000000008152600401610ce59061174b565b60405180910390fd5b600960009054906101000a900460ff16600960019054906101000a900460ff16600454600960029054906101000a900460ff1660085442955095509550955095509550909192939495565b60008060009054906101000a900473ffffffffffffffffffffffffffffffffffffffff1673ffffffffffffffffffffffffffffffffffffffff163373ffffffffffffffffffffffffffffffffffffffff1614610dca576040517f08c379a0000000000000000000000000000000000000000000000000000000008152600401610dc19061174b565b60405180910390fd5b600260009054906101000a900473ffffffffffffffffffffffffffffffffffffffff1673ffffffffffffffffffffffffffffffffffffffff168273ffffffffffffffffffffffffffffffffffffffff1614610e5a576040517f08c379a0000000000000000000000000000000000000000000000000000000008152600401610e5190611967565b60405180910390fd5b60001515600960009054906101000a900460ff161515148015610e90575060001515600960019054906101000a900460ff161515145b8015610eaf575060001515600960029054906101000a900460ff161515145b610eee576040517f08c379a0000000000000000000000000000000000000000000000000000000008152600401610ee590611d5b565b60405180910390fd5b6001600960026101000a81548160ff021916908315150217905550600260009054906101000a900473ffffffffffffffffffffffffffffffffffffffff1673ffffffffffffffffffffffffffffffffffffffff166108fc479081150290604051600060405180830381858888f19350505050158015610f71573d6000803e3d6000fd5b5060019050919050565b60008060009054906101000a900473ffffffffffffffffffffffffffffffffffffffff1673ffffffffffffffffffffffffffffffffffffffff163373ffffffffffffffffffffffffffffffffffffffff161461100c576040517f08c379a00000000000000000000000000000000000000000000000000000000081526004016110039061174b565b60405180910390fd5b600260009054906101000a900473ffffffffffffffffffffffffffffffffffffffff1673ffffffffffffffffffffffffffffffffffffffff168273ffffffffffffffffffffffffffffffffffffffff16141561109d576040517f08c379a0000000000000000000000000000000000000000000000000000000008152600401611094906117b7565b60405180910390fd5b600960009054906101000a900460ff16156110ed576040517f08c379a00000000000000000000000000000000000000000000000000000000081526004016110e490611dc7565b60405180910390fd5b600960029054906101000a900460ff161561113d576040517f08c379a000000000000000000000000000000000000000000000000000000000815260040161113490611e59565b60405180910390fd5b6000600160009054906101000a900473ffffffffffffffffffffffffffffffffffffffff1673ffffffffffffffffffffffffffffffffffffffff1663dd62ed3e84306040518363ffffffff1660e01b815260040161119c929190611a61565b602060405180830381865afa1580156111b9573d6000803e3d6000fd5b505050506040513d601f19601f820116820180604052508101906111dd9190611ab6565b9050600554811015611224576040517f08c379a000000000000000000000000000000000000000000000000000000000815260040161121b90611eeb565b60405180910390fd5b600160009054906101000a900473ffffffffffffffffffffffffffffffffffffffff1673ffffffffffffffffffffffffffffffffffffffff166323b872dd84600260009054906101000a900473ffffffffffffffffffffffffffffffffffffffff166005546040518463ffffffff1660e01b81526004016112a793929190611b4f565b6020604051808303816000875af11580156112c6573d6000803e3d6000fd5b505050506040513d601f19601f820116820180604052508101906112ea9190611bb2565b611329576040517f08c379a000000000000000000000000000000000000000000000000000000000815260040161132090611c2b565b60405180910390fd5b6001600960006101000a81548160ff02191690831515021790555082600360006101000a81548173ffffffffffffffffffffffffffffffffffffffff021916908373ffffffffffffffffffffffffffffffffffffffff1602179055506001915050919050565b600360009054906101000a900473ffffffffffffffffffffffffffffffffffffffff1681565b60065481565b600260009054906101000a900473ffffffffffffffffffffffffffffffffffffffff1681565b600960029054906101000a900460ff1681565b60045481565b6000819050919050565b61140d816113fa565b82525050565b60006020820190506114286000830184611404565b92915050565b600080fd5b600073ffffffffffffffffffffffffffffffffffffffff82169050919050565b600061145e82611433565b9050919050565b61146e81611453565b811461147957600080fd5b50565b60008135905061148b81611465565b92915050565b6000602082840312156114a7576114a661142e565b5b60006114b58482850161147c565b91505092915050565b60008115159050919050565b6114d3816114be565b82525050565b60006020820190506114ee60008301846114ca565b92915050565b600081519050919050565b600082825260208201905092915050565b60005b8381101561152e578082015181840152602081019050611513565b8381111561153d576000848401525b50505050565b6000601f19601f8301169050919050565b600061155f826114f4565b61156981856114ff565b9350611579818560208601611510565b61158281611543565b840191505092915050565b600060208201905081810360008301526115a78184611554565b905092915050565b6115b881611453565b82525050565b600060a0820190506115d360008301886115af565b6115e060208301876115af565b6115ed6040830186611404565b6115fa6060830185611404565b818103608083015261160c8184611554565b90509695505050505050565b600060c08201905061162d60008301896114ca565b61163a60208301886114ca565b6116476040830187611404565b61165460608301866114ca565b6116616080830185611404565b61166e60a0830184611404565b979650505050505050565b600061168482611433565b9050919050565b61169481611679565b811461169f57600080fd5b50565b6000813590506116b18161168b565b92915050565b6000602082840312156116cd576116cc61142e565b5b60006116db848285016116a2565b91505092915050565b60006020820190506116f960008301846115af565b92915050565b7f556e617574686f72697365642061636365737300000000000000000000000000600082015250565b60006117356013836114ff565b9150611740826116ff565b602082019050919050565b6000602082019050818103600083015261176481611728565b9050919050565b7f496e76616c6964204c656e646572000000000000000000000000000000000000600082015250565b60006117a1600e836114ff565b91506117ac8261176b565b602082019050919050565b600060208201905081810360008301526117d081611794565b9050919050565b7f4d6f6e6579204e6f74204c656e74000000000000000000000000000000000000600082015250565b600061180d600e836114ff565b9150611818826117d7565b602082019050919050565b6000602082019050818103600083015261183c81611800565b9050919050565b7f436f6c6c61746572616c20616c726561647920636f6c6c656374656400000000600082015250565b6000611879601c836114ff565b915061188482611843565b602082019050919050565b600060208201905081810360008301526118a88161186c565b9050919050565b7f546f6f20736f6f6e20746f20636f6c6c65637420636f6c6c746572616c000000600082015250565b60006118e5601d836114ff565b91506118f0826118af565b602082019050919050565b60006020820190508181036000830152611914816118d8565b9050919050565b7f496e76616c69642041736b657200000000000000000000000000000000000000600082015250565b6000611951600d836114ff565b915061195c8261191b565b602082019050919050565b6000602082019050818103600083015261198081611944565b9050919050565b7f4f7065726174696f6e204e6f74205065726d6974746564000000000000000000600082015250565b60006119bd6017836114ff565b91506119c882611987565b602082019050919050565b600060208201905081810360008301526119ec816119b0565b9050919050565b6000819050919050565b6000611a18611a13611a0e84611433565b6119f3565b611433565b9050919050565b6000611a2a826119fd565b9050919050565b6000611a3c82611a1f565b9050919050565b611a4c81611a31565b82525050565b611a5b81611679565b82525050565b6000604082019050611a766000830185611a43565b611a836020830184611a52565b9392505050565b611a93816113fa565b8114611a9e57600080fd5b50565b600081519050611ab081611a8a565b92915050565b600060208284031215611acc57611acb61142e565b5b6000611ada84828501611aa1565b91505092915050565b7f496e73756666696369656e742042616c616e6365000000000000000000000000600082015250565b6000611b196014836114ff565b9150611b2482611ae3565b602082019050919050565b60006020820190508181036000830152611b4881611b0c565b9050919050565b6000606082019050611b646000830186611a43565b611b716020830185611a43565b611b7e6040830184611404565b949350505050565b611b8f816114be565b8114611b9a57600080fd5b50565b600081519050611bac81611b86565b92915050565b600060208284031215611bc857611bc761142e565b5b6000611bd684828501611b9d565b91505092915050565b7f5472616e73666572204661696c65640000000000000000000000000000000000600082015250565b6000611c15600f836114ff565b9150611c2082611bdf565b602082019050919050565b60006020820190508181036000830152611c4481611c08565b9050919050565b7f4e487b7100000000000000000000000000000000000000000000000000000000600052601160045260246000fd5b6000611c85826113fa565b9150611c90836113fa565b925082821015611ca357611ca2611c4b565b5b828203905092915050565b7f4e487b7100000000000000000000000000000000000000000000000000000000600052602260045260246000fd5b60006002820490506001821680611cf557607f821691505b60208210811415611d0957611d08611cae565b5b50919050565b7f43616e206e6f742063616e63656c206e6f770000000000000000000000000000600082015250565b6000611d456012836114ff565b9150611d5082611d0f565b602082019050919050565b60006020820190508181036000830152611d7481611d38565b9050919050565b7f4d6f6e657920416c7265616479204c656e740000000000000000000000000000600082015250565b6000611db16012836114ff565b9150611dbc82611d7b565b602082019050919050565b60006020820190508181036000830152611de081611da4565b9050919050565b7f436f6c6c61746572616c20416c726561647920436f6c6c6563746564206f722060008201527f526571756573742043616e63656c6c6564000000000000000000000000000000602082015250565b6000611e436031836114ff565b9150611e4e82611de7565b604082019050919050565b60006020820190508181036000830152611e7281611e36565b9050919050565b7f42616c616e6365206973206c657373207468616e2061736b656420616d6f756e60008201527f7400000000000000000000000000000000000000000000000000000000000000602082015250565b6000611ed56021836114ff565b9150611ee082611e79565b604082019050919050565b60006020820190508181036000830152611f0481611ec8565b905091905056fea2646970667358221220cfe670658eabce047ab931d909916a4ecb3e266c58e5a49c4c6b9129464ac3a764736f6c634300080b0033",
  "linkReferences": {},
  "deployedLinkReferences": {}
}