{
  "_format": "hh-sol-artifact-1",
  "contractName": "Governance",
  "sourceName": "contracts/GovernanceContract.sol",
  "abi": [
    {
      "anonymous": false,
      "inputs": [
        {
          "indexed": false,
          "internalType": "uint8",
          "name": "version",
          "type": "uint8"
        }
      ],
      "name": "Initialized",
      "type": "event"
    },
    {
      "inputs": [
        {
          "internalType": "bool",
          "name": "newState",
          "type": "bool"
        }
      ],
      "name": "changePlatformState",
      "outputs": [
        {
          "internalType": "bool",
          "name": "_success",
          "type": "bool"
        }
      ],
      "stateMutability": "nonpayable",
      "type": "function"
    },
    {
      "inputs": [],
      "name": "enableFlag",
      "outputs": [
        {
          "internalType": "bool",
          "name": "_success",
          "type": "bool"
        }
      ],
      "stateMutability": "nonpayable",
      "type": "function"
    },
    {
      "inputs": [],
      "name": "flag",
      "outputs": [
        {
          "internalType": "bool",
          "name": "_success",
          "type": "bool"
        }
      ],
      "stateMutability": "nonpayable",
      "type": "function"
    },
    {
      "inputs": [
        {
          "internalType": "uint16",
          "name": "_flaggingThreshold",
          "type": "uint16"
        }
      ],
      "name": "initialize",
      "outputs": [],
      "stateMutability": "nonpayable",
      "type": "function"
    },
    {
      "inputs": [],
      "name": "isPlatformEnabled",
      "outputs": [
        {
          "internalType": "bool",
          "name": "",
          "type": "bool"
        }
      ],
      "stateMutability": "view",
      "type": "function"
    }
  ],
  "bytecode": "0x608060405234801561001057600080fd5b506106e8806100206000396000f3fe608060405234801561001057600080fd5b50600436106100575760003560e01c8063137509461461005c5780636494654114610078578063890eba68146100a8578063bfe147ca146100c6578063e9d42c3d146100e4575b600080fd5b6100766004803603810190610071919061047f565b610102565b005b610092600480360381019061008d91906104e4565b61028e565b60405161009f9190610520565b60405180910390f35b6100b06102b3565b6040516100bd9190610520565b60405180910390f35b6100ce61035e565b6040516100db9190610520565b60405180910390f35b6100ec61040a565b6040516100f99190610520565b60405180910390f35b60008060019054906101000a900460ff161590508080156101335750600160008054906101000a900460ff1660ff16105b8061016057506101423061041d565b15801561015f5750600160008054906101000a900460ff1660ff16145b5b61019f576040517f08c379a0000000000000000000000000000000000000000000000000000000008152600401610196906105be565b60405180910390fd5b60016000806101000a81548160ff021916908360ff16021790555080156101dc576001600060016101000a81548160ff0219169083151502179055505b81600060026101000a81548161ffff021916908361ffff16021790555060008060046101000a81548161ffff021916908361ffff1602179055506001600060066101000a81548160ff021916908315150217905550801561028a5760008060016101000a81548160ff0219169083151502179055507f7f26b83ff96e1f2b6a682f133852f6798a09c465da95921460cefb384740249860016040516102819190610630565b60405180910390a15b5050565b600081600060066101000a81548160ff02191690831515021790555060019050919050565b60006001600060048282829054906101000a900461ffff166102d5919061067a565b92506101000a81548161ffff021916908361ffff160217905550600060029054906101000a900461ffff1661ffff16600060049054906101000a900461ffff1661ffff1611156103575760008060066101000a81548160ff02191690831515021790555060008060046101000a81548161ffff021916908361ffff1602179055505b6001905090565b60006001600060048282829054906101000a900461ffff16610380919061067a565b92506101000a81548161ffff021916908361ffff160217905550600060029054906101000a900461ffff1661ffff16600060049054906101000a900461ffff1661ffff161115610403576001600060066101000a81548160ff02191690831515021790555060008060046101000a81548161ffff021916908361ffff1602179055505b6001905090565b600060069054906101000a900460ff1681565b6000808273ffffffffffffffffffffffffffffffffffffffff163b119050919050565b600080fd5b600061ffff82169050919050565b61045c81610445565b811461046757600080fd5b50565b60008135905061047981610453565b92915050565b60006020828403121561049557610494610440565b5b60006104a38482850161046a565b91505092915050565b60008115159050919050565b6104c1816104ac565b81146104cc57600080fd5b50565b6000813590506104de816104b8565b92915050565b6000602082840312156104fa576104f9610440565b5b6000610508848285016104cf565b91505092915050565b61051a816104ac565b82525050565b60006020820190506105356000830184610511565b92915050565b600082825260208201905092915050565b7f496e697469616c697a61626c653a20636f6e747261637420697320616c72656160008201527f647920696e697469616c697a6564000000000000000000000000000000000000602082015250565b60006105a8602e8361053b565b91506105b38261054c565b604082019050919050565b600060208201905081810360008301526105d78161059b565b9050919050565b6000819050919050565b600060ff82169050919050565b6000819050919050565b600061061a610615610610846105de565b6105f5565b6105e8565b9050919050565b61062a816105ff565b82525050565b60006020820190506106456000830184610621565b92915050565b7f4e487b7100000000000000000000000000000000000000000000000000000000600052601160045260246000fd5b600061068582610445565b915061069083610445565b92508261ffff038211156106a7576106a661064b565b5b82820190509291505056fea2646970667358221220287240c4c7cfd0938fa8488ed6f29cc62474c7bfcef956ca228e1b9e5bc1022164736f6c634300080b0033",
  "linkReferences": {},
  "deployedLinkReferences": {}
}