{
  "_format": "hh-sol-artifact-1",
  "contractName": "UpgradToken",
  "sourceName": "contracts/UpgradTokenContract.sol",
  "abi": [
    {
      "inputs": [
        {
          "internalType": "uint256",
          "name": "_initialAmount",
          "type": "uint256"
        },
        {
          "internalType": "string",
          "name": "_tokenName",
          "type": "string"
        },
        {
          "internalType": "uint8",
          "name": "_decimalUnits",
          "type": "uint8"
        },
        {
          "internalType": "string",
          "name": "_tokenSymbol",
          "type": "string"
        }
      ],
      "stateMutability": "nonpayable",
      "type": "constructor"
    },
    {
      "anonymous": false,
      "inputs": [
        {
          "indexed": true,
          "internalType": "address",
          "name": "_owner",
          "type": "address"
        },
        {
          "indexed": true,
          "internalType": "address",
          "name": "_spender",
          "type": "address"
        },
        {
          "indexed": false,
          "internalType": "uint256",
          "name": "_value",
          "type": "uint256"
        }
      ],
      "name": "Approval",
      "type": "event"
    },
    {
      "anonymous": false,
      "inputs": [
        {
          "indexed": true,
          "internalType": "address",
          "name": "_from",
          "type": "address"
        },
        {
          "indexed": true,
          "internalType": "address",
          "name": "_to",
          "type": "address"
        },
        {
          "indexed": false,
          "internalType": "uint256",
          "name": "_value",
          "type": "uint256"
        }
      ],
      "name": "Transfer",
      "type": "event"
    },
    {
      "inputs": [
        {
          "internalType": "address",
          "name": "_owner",
          "type": "address"
        },
        {
          "internalType": "address",
          "name": "_spender",
          "type": "address"
        }
      ],
      "name": "allowance",
      "outputs": [
        {
          "internalType": "uint256",
          "name": "remaining",
          "type": "uint256"
        }
      ],
      "stateMutability": "view",
      "type": "function"
    },
    {
      "inputs": [
        {
          "internalType": "address",
          "name": "",
          "type": "address"
        },
        {
          "internalType": "address",
          "name": "",
          "type": "address"
        }
      ],
      "name": "allowed",
      "outputs": [
        {
          "internalType": "uint256",
          "name": "",
          "type": "uint256"
        }
      ],
      "stateMutability": "view",
      "type": "function"
    },
    {
      "inputs": [
        {
          "internalType": "address",
          "name": "_spender",
          "type": "address"
        },
        {
          "internalType": "uint256",
          "name": "_value",
          "type": "uint256"
        }
      ],
      "name": "approve",
      "outputs": [
        {
          "internalType": "bool",
          "name": "success",
          "type": "bool"
        }
      ],
      "stateMutability": "nonpayable",
      "type": "function"
    },
    {
      "inputs": [
        {
          "internalType": "address",
          "name": "_owner",
          "type": "address"
        }
      ],
      "name": "balanceOf",
      "outputs": [
        {
          "internalType": "uint256",
          "name": "balance",
          "type": "uint256"
        }
      ],
      "stateMutability": "view",
      "type": "function"
    },
    {
      "inputs": [],
      "name": "decimals",
      "outputs": [
        {
          "internalType": "uint8",
          "name": "",
          "type": "uint8"
        }
      ],
      "stateMutability": "view",
      "type": "function"
    },
    {
      "inputs": [],
      "name": "name",
      "outputs": [
        {
          "internalType": "string",
          "name": "",
          "type": "string"
        }
      ],
      "stateMutability": "view",
      "type": "function"
    },
    {
      "inputs": [],
      "name": "owner",
      "outputs": [
        {
          "internalType": "address",
          "name": "",
          "type": "address"
        }
      ],
      "stateMutability": "view",
      "type": "function"
    },
    {
      "inputs": [],
      "name": "symbol",
      "outputs": [
        {
          "internalType": "string",
          "name": "",
          "type": "string"
        }
      ],
      "stateMutability": "view",
      "type": "function"
    },
    {
      "inputs": [],
      "name": "totalSupply",
      "outputs": [
        {
          "internalType": "uint256",
          "name": "",
          "type": "uint256"
        }
      ],
      "stateMutability": "view",
      "type": "function"
    },
    {
      "inputs": [
        {
          "internalType": "address",
          "name": "_to",
          "type": "address"
        },
        {
          "internalType": "uint256",
          "name": "_value",
          "type": "uint256"
        }
      ],
      "name": "transfer",
      "outputs": [
        {
          "internalType": "bool",
          "name": "success",
          "type": "bool"
        }
      ],
      "stateMutability": "nonpayable",
      "type": "function"
    },
    {
      "inputs": [
        {
          "internalType": "address",
          "name": "_from",
          "type": "address"
        },
        {
          "internalType": "address",
          "name": "_to",
          "type": "address"
        },
        {
          "internalType": "uint256",
          "name": "_value",
          "type": "uint256"
        }
      ],
      "name": "transferFrom",
      "outputs": [
        {
          "internalType": "bool",
          "name": "success",
          "type": "bool"
        }
      ],
      "stateMutability": "nonpayable",
      "type": "function"
    }
  ],
  "bytecode": "0x60806040523480156200001157600080fd5b5060405162001d9538038062001d9583398181016040528101906200003791906200049f565b82600090805190602001906200004f929190620001d9565b5081600360006101000a81548160ff021916908360ff160217905550806001908051906020019062000083929190620001d9565b50620000be600360009054906101000a900460ff1660ff16600a620000a99190620006d2565b856200015560201b62000b871790919060201c565b600281905550600254600460003373ffffffffffffffffffffffffffffffffffffffff1673ffffffffffffffffffffffffffffffffffffffff1681526020019081526020016000208190555033600360016101000a81548173ffffffffffffffffffffffffffffffffffffffff021916908373ffffffffffffffffffffffffffffffffffffffff16021790555050505050620008f9565b6000808314156200016a5760009050620001d3565b600082846200017a919062000723565b90508284826200018b9190620007b3565b14620001ce576040517f08c379a0000000000000000000000000000000000000000000000000000000008152600401620001c59062000872565b60405180910390fd5b809150505b92915050565b828054620001e790620008c3565b90600052602060002090601f0160209004810192826200020b576000855562000257565b82601f106200022657805160ff191683800117855562000257565b8280016001018555821562000257579182015b828111156200025657825182559160200191906001019062000239565b5b5090506200026691906200026a565b5090565b5b80821115620002855760008160009055506001016200026b565b5090565b6000604051905090565b600080fd5b600080fd5b6000819050919050565b620002b2816200029d565b8114620002be57600080fd5b50565b600081519050620002d281620002a7565b92915050565b600080fd5b600080fd5b6000601f19601f8301169050919050565b7f4e487b7100000000000000000000000000000000000000000000000000000000600052604160045260246000fd5b6200032d82620002e2565b810181811067ffffffffffffffff821117156200034f576200034e620002f3565b5b80604052505050565b60006200036462000289565b905062000372828262000322565b919050565b600067ffffffffffffffff821115620003955762000394620002f3565b5b620003a082620002e2565b9050602081019050919050565b60005b83811015620003cd578082015181840152602081019050620003b0565b83811115620003dd576000848401525b50505050565b6000620003fa620003f48462000377565b62000358565b905082815260208101848484011115620004195762000418620002dd565b5b62000426848285620003ad565b509392505050565b600082601f830112620004465762000445620002d8565b5b815162000458848260208601620003e3565b91505092915050565b600060ff82169050919050565b620004798162000461565b81146200048557600080fd5b50565b60008151905062000499816200046e565b92915050565b60008060008060808587031215620004bc57620004bb62000293565b5b6000620004cc87828801620002c1565b945050602085015167ffffffffffffffff811115620004f057620004ef62000298565b5b620004fe878288016200042e565b9350506040620005118782880162000488565b925050606085015167ffffffffffffffff81111562000535576200053462000298565b5b62000543878288016200042e565b91505092959194509250565b7f4e487b7100000000000000000000000000000000000000000000000000000000600052601160045260246000fd5b60008160011c9050919050565b6000808291508390505b6001851115620005dd57808604811115620005b557620005b46200054f565b5b6001851615620005c55780820291505b8081029050620005d5856200057e565b945062000595565b94509492505050565b600082620005f85760019050620006cb565b81620006085760009050620006cb565b81600181146200062157600281146200062c5762000662565b6001915050620006cb565b60ff8411156200064157620006406200054f565b5b8360020a9150848211156200065b576200065a6200054f565b5b50620006cb565b5060208310610133831016604e8410600b84101617156200069c5782820a9050838111156200069657620006956200054f565b5b620006cb565b620006ab84848460016200058b565b92509050818404811115620006c557620006c46200054f565b5b81810290505b9392505050565b6000620006df826200029d565b9150620006ec836200029d565b92506200071b7fffffffffffffffffffffffffffffffffffffffffffffffffffffffffffffffff8484620005e6565b905092915050565b600062000730826200029d565b91506200073d836200029d565b9250817fffffffffffffffffffffffffffffffffffffffffffffffffffffffffffffffff04831182151516156200077957620007786200054f565b5b828202905092915050565b7f4e487b7100000000000000000000000000000000000000000000000000000000600052601260045260246000fd5b6000620007c0826200029d565b9150620007cd836200029d565b925082620007e057620007df62000784565b5b828204905092915050565b600082825260208201905092915050565b7f536166654d6174683a206d756c7469706c69636174696f6e206f766572666c6f60008201527f7700000000000000000000000000000000000000000000000000000000000000602082015250565b60006200085a602183620007eb565b91506200086782620007fc565b604082019050919050565b600060208201905081810360008301526200088d816200084b565b9050919050565b7f4e487b7100000000000000000000000000000000000000000000000000000000600052602260045260246000fd5b60006002820490506001821680620008dc57607f821691505b60208210811415620008f357620008f262000894565b5b50919050565b61148c80620009096000396000f3fe608060405234801561001057600080fd5b50600436106100a95760003560e01c80635c658165116100715780635c6581651461016857806370a08231146101985780638da5cb5b146101c857806395d89b41146101e6578063a9059cbb14610204578063dd62ed3e14610234576100a9565b806306fdde03146100ae578063095ea7b3146100cc57806318160ddd146100fc57806323b872dd1461011a578063313ce5671461014a575b600080fd5b6100b6610264565b6040516100c39190610d58565b60405180910390f35b6100e660048036038101906100e19190610e13565b6102f2565b6040516100f39190610e6e565b60405180910390f35b61010461042f565b6040516101119190610e98565b60405180910390f35b610134600480360381019061012f9190610eb3565b610435565b6040516101419190610e6e565b60405180910390f35b6101526107ae565b60405161015f9190610f22565b60405180910390f35b610182600480360381019061017d9190610f3d565b6107c1565b60405161018f9190610e98565b60405180910390f35b6101b260048036038101906101ad9190610f7d565b6107e6565b6040516101bf9190610e98565b60405180910390f35b6101d061082f565b6040516101dd9190610fb9565b60405180910390f35b6101ee610855565b6040516101fb9190610d58565b60405180910390f35b61021e60048036038101906102199190610e13565b6108e3565b60405161022b9190610e6e565b60405180910390f35b61024e60048036038101906102499190610f3d565b610b00565b60405161025b9190610e98565b60405180910390f35b6000805461027190611003565b80601f016020809104026020016040519081016040528092919081815260200182805461029d90611003565b80156102ea5780601f106102bf576101008083540402835291602001916102ea565b820191906000526020600020905b8154815290600101906020018083116102cd57829003601f168201915b505050505081565b6000816102fe336107e6565b101561033f576040517f08c379a000000000000000000000000000000000000000000000000000000000815260040161033690611081565b60405180910390fd5b81600560003373ffffffffffffffffffffffffffffffffffffffff1673ffffffffffffffffffffffffffffffffffffffff16815260200190815260200160002060008573ffffffffffffffffffffffffffffffffffffffff1673ffffffffffffffffffffffffffffffffffffffff168152602001908152602001600020819055508273ffffffffffffffffffffffffffffffffffffffff163373ffffffffffffffffffffffffffffffffffffffff167f8c5be1e5ebec7d5bd14f71427d1e84f3dd0314c0f7b2291e5b200ac8c7c3b9258460405161041d9190610e98565b60405180910390a36001905092915050565b60025481565b6000816104428533610b00565b1015610483576040517f08c379a000000000000000000000000000000000000000000000000000000000815260040161047a906110ed565b60405180910390fd5b81600460008673ffffffffffffffffffffffffffffffffffffffff1673ffffffffffffffffffffffffffffffffffffffff168152602001908152602001600020541015610505576040517f08c379a00000000000000000000000000000000000000000000000000000000081526004016104fc90611159565b60405180910390fd5b61055782600460008673ffffffffffffffffffffffffffffffffffffffff1673ffffffffffffffffffffffffffffffffffffffff16815260200190815260200160002054610c0290919063ffffffff16565b600460008573ffffffffffffffffffffffffffffffffffffffff1673ffffffffffffffffffffffffffffffffffffffff168152602001908152602001600020819055506105ec82600460008773ffffffffffffffffffffffffffffffffffffffff1673ffffffffffffffffffffffffffffffffffffffff16815260200190815260200160002054610c6090919063ffffffff16565b600460008673ffffffffffffffffffffffffffffffffffffffff1673ffffffffffffffffffffffffffffffffffffffff168152602001908152602001600020819055506106be82600560008773ffffffffffffffffffffffffffffffffffffffff1673ffffffffffffffffffffffffffffffffffffffff16815260200190815260200160002060003373ffffffffffffffffffffffffffffffffffffffff1673ffffffffffffffffffffffffffffffffffffffff16815260200190815260200160002054610c6090919063ffffffff16565b600560008673ffffffffffffffffffffffffffffffffffffffff1673ffffffffffffffffffffffffffffffffffffffff16815260200190815260200160002060003373ffffffffffffffffffffffffffffffffffffffff1673ffffffffffffffffffffffffffffffffffffffff168152602001908152602001600020819055508273ffffffffffffffffffffffffffffffffffffffff168473ffffffffffffffffffffffffffffffffffffffff167fddf252ad1be2c89b69c2b068fc378daa952ba7f163c4a11628f55a4df523b3ef8460405161079b9190610e98565b60405180910390a3600190509392505050565b600360009054906101000a900460ff1681565b6005602052816000526040600020602052806000526040600020600091509150505481565b6000600460008373ffffffffffffffffffffffffffffffffffffffff1673ffffffffffffffffffffffffffffffffffffffff168152602001908152602001600020549050919050565b600360019054906101000a900473ffffffffffffffffffffffffffffffffffffffff1681565b6001805461086290611003565b80601f016020809104026020016040519081016040528092919081815260200182805461088e90611003565b80156108db5780601f106108b0576101008083540402835291602001916108db565b820191906000526020600020905b8154815290600101906020018083116108be57829003601f168201915b505050505081565b600081600460003373ffffffffffffffffffffffffffffffffffffffff1673ffffffffffffffffffffffffffffffffffffffff168152602001908152602001600020541015610967576040517f08c379a000000000000000000000000000000000000000000000000000000000815260040161095e90611081565b60405180910390fd5b6109b982600460003373ffffffffffffffffffffffffffffffffffffffff1673ffffffffffffffffffffffffffffffffffffffff16815260200190815260200160002054610c6090919063ffffffff16565b600460003373ffffffffffffffffffffffffffffffffffffffff1673ffffffffffffffffffffffffffffffffffffffff16815260200190815260200160002081905550610a4e82600460008673ffffffffffffffffffffffffffffffffffffffff1673ffffffffffffffffffffffffffffffffffffffff16815260200190815260200160002054610c0290919063ffffffff16565b600460008573ffffffffffffffffffffffffffffffffffffffff1673ffffffffffffffffffffffffffffffffffffffff168152602001908152602001600020819055508273ffffffffffffffffffffffffffffffffffffffff163373ffffffffffffffffffffffffffffffffffffffff167fddf252ad1be2c89b69c2b068fc378daa952ba7f163c4a11628f55a4df523b3ef84604051610aee9190610e98565b60405180910390a36001905092915050565b6000600560008473ffffffffffffffffffffffffffffffffffffffff1673ffffffffffffffffffffffffffffffffffffffff16815260200190815260200160002060008373ffffffffffffffffffffffffffffffffffffffff1673ffffffffffffffffffffffffffffffffffffffff16815260200190815260200160002054905092915050565b600080831415610b9a5760009050610bfc565b60008284610ba891906111a8565b9050828482610bb79190611231565b14610bf7576040517f08c379a0000000000000000000000000000000000000000000000000000000008152600401610bee906112d4565b60405180910390fd5b809150505b92915050565b6000808284610c1191906112f4565b905083811015610c56576040517f08c379a0000000000000000000000000000000000000000000000000000000008152600401610c4d90611396565b60405180910390fd5b8091505092915050565b600082821115610ca5576040517f08c379a0000000000000000000000000000000000000000000000000000000008152600401610c9c90611402565b60405180910390fd5b60008284610cb39190611422565b90508091505092915050565b600081519050919050565b600082825260208201905092915050565b60005b83811015610cf9578082015181840152602081019050610cde565b83811115610d08576000848401525b50505050565b6000601f19601f8301169050919050565b6000610d2a82610cbf565b610d348185610cca565b9350610d44818560208601610cdb565b610d4d81610d0e565b840191505092915050565b60006020820190508181036000830152610d728184610d1f565b905092915050565b600080fd5b600073ffffffffffffffffffffffffffffffffffffffff82169050919050565b6000610daa82610d7f565b9050919050565b610dba81610d9f565b8114610dc557600080fd5b50565b600081359050610dd781610db1565b92915050565b6000819050919050565b610df081610ddd565b8114610dfb57600080fd5b50565b600081359050610e0d81610de7565b92915050565b60008060408385031215610e2a57610e29610d7a565b5b6000610e3885828601610dc8565b9250506020610e4985828601610dfe565b9150509250929050565b60008115159050919050565b610e6881610e53565b82525050565b6000602082019050610e836000830184610e5f565b92915050565b610e9281610ddd565b82525050565b6000602082019050610ead6000830184610e89565b92915050565b600080600060608486031215610ecc57610ecb610d7a565b5b6000610eda86828701610dc8565b9350506020610eeb86828701610dc8565b9250506040610efc86828701610dfe565b9150509250925092565b600060ff82169050919050565b610f1c81610f06565b82525050565b6000602082019050610f376000830184610f13565b92915050565b60008060408385031215610f5457610f53610d7a565b5b6000610f6285828601610dc8565b9250506020610f7385828601610dc8565b9150509250929050565b600060208284031215610f9357610f92610d7a565b5b6000610fa184828501610dc8565b91505092915050565b610fb381610d9f565b82525050565b6000602082019050610fce6000830184610faa565b92915050565b7f4e487b7100000000000000000000000000000000000000000000000000000000600052602260045260246000fd5b6000600282049050600182168061101b57607f821691505b6020821081141561102f5761102e610fd4565b5b50919050565b7f696e73756666696369656e742066756e64730000000000000000000000000000600082015250565b600061106b601283610cca565b915061107682611035565b602082019050919050565b6000602082019050818103600083015261109a8161105e565b9050919050565b7f696e73756666696369656e7420616c6c6f77616e636500000000000000000000600082015250565b60006110d7601683610cca565b91506110e2826110a1565b602082019050919050565b60006020820190508181036000830152611106816110ca565b9050919050565b7f696e76616c6964207472616e7366657220616d6f756e74000000000000000000600082015250565b6000611143601783610cca565b915061114e8261110d565b602082019050919050565b6000602082019050818103600083015261117281611136565b9050919050565b7f4e487b7100000000000000000000000000000000000000000000000000000000600052601160045260246000fd5b60006111b382610ddd565b91506111be83610ddd565b9250817fffffffffffffffffffffffffffffffffffffffffffffffffffffffffffffffff04831182151516156111f7576111f6611179565b5b828202905092915050565b7f4e487b7100000000000000000000000000000000000000000000000000000000600052601260045260246000fd5b600061123c82610ddd565b915061124783610ddd565b92508261125757611256611202565b5b828204905092915050565b7f536166654d6174683a206d756c7469706c69636174696f6e206f766572666c6f60008201527f7700000000000000000000000000000000000000000000000000000000000000602082015250565b60006112be602183610cca565b91506112c982611262565b604082019050919050565b600060208201905081810360008301526112ed816112b1565b9050919050565b60006112ff82610ddd565b915061130a83610ddd565b9250827fffffffffffffffffffffffffffffffffffffffffffffffffffffffffffffffff0382111561133f5761133e611179565b5b828201905092915050565b7f536166654d6174683a206164646974696f6e206f766572666c6f770000000000600082015250565b6000611380601b83610cca565b915061138b8261134a565b602082019050919050565b600060208201905081810360008301526113af81611373565b9050919050565b7f536166654d6174683a207375627472616374696f6e206f766572666c6f770000600082015250565b60006113ec601e83610cca565b91506113f7826113b6565b602082019050919050565b6000602082019050818103600083015261141b816113df565b9050919050565b600061142d82610ddd565b915061143883610ddd565b92508282101561144b5761144a611179565b5b82820390509291505056fea26469706673582212200c5632ed63aabb96fb6ea299b81951d2383a47fcb209c32fd6c1769c58bad5c664736f6c634300080b0033",
  "linkReferences": {},
  "deployedLinkReferences": {}
}